:100000002BC0FECFFDCFFCCFFBCFFACFE8C0F8CF9F
:100010008BC0F6CFF5CFF4CFF3CFF2CFF1CFF0CF47
:10002000EFCFEECFEDCF00000000C000F900A4003C
:10003000B000990092008200F8008000900000005B
:1000400000000C00040004002600130060012A00D8
:10005000050074013E000000F894EE27ECBBF1E0CF
:10006000FBBFEBBFE5BF8DE0A2E0BB27ED938A9518
:10007000E9F780E094E0A0E6ED930197E9F7E4E486
:10008000F0E085919591009761F0A591B59105906B
:100090001590BF01F00105900D920197E1F7FB016A
:1000A000F0CFEFE5EDBFE4E0EEBFC0E6D1E0B0C0D9
:1000B000ACD100E010E00630E0E01E0794F5E0E08F
:1000C000E5BB0AD182D1309781F406D109D17DD127
:1000D00013D1002E012A31F0062C072811F415D176
:1000E0000CF401C001C0979804C0F6D0F9D068D1D3
:1000F00003D1062C072849F008D13CF4EDD060D19B
:100100004E165F0611F4E1E001C0E0E0A1E0AE2789
:10011000E02F36D1E5BBA1E0B0E024D10F5F1F4F47
:10012000CACF0991199108950A921A92FA926A9384
:100130007A938A939A93AA93BA93EA93FA93EFB72E
:10014000EA93E0E0EEBDE5D0E1E0F0E04E165F06B8
:10015000B4F5E4D0E6D0A0917401B0917501DC97BC
:10016000CCF0E5D0A6E7B1E0DCD0A0917601B0916B
:100170007701DC977CF0E6E7F1E0DFD0A8E7B1E0BB
:10018000D0D0A0917801B091790158971CF0E8E7A0
:10019000F1E0D3D0B09911C0F20131972F01EDEF0A
:1001A000FFEFE415F50544F0E2E0F0E02F01BFD0E9
:1001B000B09902C07DDFFCCF02C044245524E3E0A7
:1001C000EEBDE991EFBFF991E991B991A9919991AA
:1001D000899179916991F990199009901895AA934C
:1001E000BA93EA93FA93EFB7EA93EAB5FBB5A4E8BA
:1001F000BEE1EA27FB27FBBDEABDF301C9D06E2EA5
:100200007724E991EFBFF991E991B991A9911895F6
:10021000E7E0E8BBE0E0E5BBE2BBE8EFE7BBEFE32C
:10022000E4BBEFEFE1BB75D0E0E0EFBDE3E0EEBD96
:10023000EBE7F1EEFBBDEABDE4E1E9BF789438DF1E
:1002400064D00CF047C0B09908C0F20131972F017B
:10025000042C052809F45DD00BC0B19903C072D0FD
:10026000319604C0B29904C06DD03197FE93EE93DD
:10027000F201E230A0E0FA0791F46DD0C2D0789795
:1002800024F069D0E0E0F0E007C065D0BAD0FF23E9
:100290002AF461D0E7E1F0E0ED93FC9315C0E13082
:1002A000A0E0FA0789F457D0ACD0FC9724F053D0E3
:1002B000E0E0F0E007C04FD0A4D0FF232AF44BD0F9
:1002C000EBE3F0E0ED93FC93E6B3A7E0EA2711F04F
:1002D000EFDEFACFB4CFFFCFD801E2E0F0E008952F
:1002E0006FD0A4E7B1E0EE0FFF1FAE0FBF1F89D0A4
:1002F000DF01EAE0F0E00895A0E6B1E0EE0FFF1FB5
:10030000AE0FBF1FEC91E2BB089500240414050456
:100310000895E7EFF2ECFDBDECBD0895A4E7B1E070
:100320000895ED91FD913196FE93EE930895E0E0EE
:10033000E0937401E09375010895A0E0B0E0A0831C
:10034000B1830895F201EADFEE0FFF1FAE0FBF1F6A
:10035000ED91FD910895F201E1DFEE0FFF1FAE0F69
:10036000BF1F0895109639F080ED97E00197F1F7DF
:10037000A8951197C9F70895F195E195F040089572
:10038000EE230E2EEA2F19F0EE0F0A94E9F70895E6
:10039000EF2BE1E009F0E0E008950024112490E162
:1003A000AA0FBB1F001C111C0E1A1F0A18F40E0EF8
:1003B0001F1E01C0A1609A9599F7FD01D001089513
:1003C00012D0EBDF0EF4D8DF0895E894B7FF04C035
:1003D000A095B09511966894F7FDCEDFDEDFFD01A4
:1003E0000EF4CADF0895E894F7FF02C0C5DF6894F1
:1003F000B7FF06C0A095B095119600F8039400FAD7
:100400000895ED91FC91119708951A930A93089518
:00000001FF
